S01700005265616C2054696D6520436C6F636B2E73726563CE
S11300000C942A000C9447000C9447000C9447006D
S11300100C9447000C9497020C9447000C944700EE
S11300200C9447000C9447000C9447000C94470030
S11300300C9447000C9447000C9447000C94470020
S11300400C9447000C9447000C9447000C94470010
S11300500C94470011241FBECFE5D8E0DEBFCDBF0E
S113006010E0A0E6B0E0EAE9FBE002C005900D92E2
S1130070AC3BB107D9F720E0ACEBB0E001C01D9276
S1130080A23CB207E1F70E94DD000C94CB050C946E
S1130090000084E460E041E00E94CE0284E461E078
S11300A041E00E94CE0284E462E041E00E94CE027C
S11300B084E463E041E00E94CE0284E464E040E032
S11300C00E94CE0284E465E040E00E94CE0284E413
S11300D066E040E00E94CE0284E467E040E00E94D3
S11300E0CE0284E464E041E00E94290484E465E0F3
S11300F041E00E94290484E466E041E00E9429046E
S113010084E467E041E00E94290408950F931F935B
S1130110CF93DF93CDB7DEB760970FB6F894DEBF09
S11301200FBECDBFDE011196E0E6F0E080E1019064
S11301300D928150E1F700E084E460E041E00E9428
S11301403E0384E461E041E00E943E0384E462E013
S113015041E00E943E0384E463E041E00E943E03E8
S113016084E4602F40E00E943E0310E0612F6C5F46
S113017084E40E94AE03882361F4E02FF0E0EE0FE4
S1130180FF1FEE0FFF1FE10FF11DEC0FFD1F81811B
S113019004C01F5F143051F70BC060960FB6F8947B
S11301A0DEBF0FBECDBFDF91CF911F910F91089598
S11301B00F5F043009F68FEFF0CF0E9449000E94D0
S11301C0F80482E40E94A802A09AA19AA29AA39A8F
S11301D0A49AA59A80E790E00E94790582E061E004
S11301E00E9492058BE790E00E9479050E94B10578
S11301F00F2EF4EACF2EF0E0DF2EF02D00E710E012
S11302000F2EFBE7EF2EF0E0FF2EF02D0F2EF5E87A
S1130210AF2EF0E0BF2EF02D0F2EFEE88F2EF0E073
S11302209F2EF02D0F2EF9E96F2EF0E07F2EF02D8A
S1130230CAE00E9486008093C1008F3F09F4DBC0AE
S1130240813309F0BEC00E948805C5010E9479056A
S113025081E067E00E9492058FEF94E3ACE0815067
S11302609040A040E1F700C000000E948600809307
S1130270BF008F3FD1F30E9457058FEF92E5A7E0AF
S113028081509040A040E1F700C000000E94860029
S11302908093C0008F3FD1F30E9457058FEF92E502
S11302A0A7E081509040A040E1F700C00000909189
S11302B0C00090518091BF00880F282F220F220F79
S11302C0820F890F8093BC000E948805C4010E949C
S11302D0790581E069E00E9492050E94860080937E
S11302E0BF008F3FD1F30E9457058FEF92E5A7E03F
S11302F081509040A040E1F700C000000E948600B9
S11303008093C0008F3FD1F30E9457058FEF92E591
S1130310A7E081509040A040E1F700C00000909118
S1130320C00090518091BF00880F282F220F220F08
S1130330820F890F8093BD000E948805C3010E942B
S1130340790581E069E00E9492050E94860080930D
S1130350BF008F3FD1F30E9457058FEF92E5A7E0CE
S113036081509040A040E1F700C000000E94860048
S11303708093C0008F3FD1F30E9457058FEF92E521
S1130380A7E081509040A040E1F700C000009091A8
S1130390C00090518091BF00880F282F220F220F98
S11303A0820F890F8093BE000E948805C8010E94B5
S11303B0790582E061E00E949205C7010E947905F7
S11303C01AC00E948805C6010E9479058FEF99E63C
S11303D0A8E181509040A040E1F700C000000E94D5
S11303E08805C8010E94790582E061E00E949205B7
S11303F0C7010E947905A99AAA9AAB9AAC9AAD9AB8
S1130400A8988091BE006C2F0E94BF0582E4692FDA
S11304100E94AC02AFE0B7E21197F1F700C0000010
S1130420A89AAA9AAB9AAC9AAD9AA9988091BE0060
S11304306C2F0E94BF05682F82E40E94AC028FE0FB
S113044097E20197F1F700C00000A89AA99AAB9A25
S1130450AC9AAD9AAA988091BD006C2F0E94BF05FA
S113046082E4692F0E94AC02AFE0B7E21197F1F782
S113047000C00000A89AA99AAA9AAC9AAD9AAB981F
S11304808091BD006C2F0E94BF05682F82E40E94FA
S1130490AC028FE097E20197F1F700C00000A89A40
S11304A0A99AAA9AAB9AAD9AAC988091BC006C2F89
S11304B00E94BF0582E4692F0E94AC02AFE0B7E25C
S11304C01197F1F700C00000A89AA99AAA9AAB9ACA
S11304D0AC9AAD988091BC006C2F0E94BF05682F28
S11304E082E40E94AC028FE097E20197F1F700C02A
S11304F000008091BE008C3339F41092BE008091CC
S1130500BD008F5F8093BD008091BD008C3339F4B2
S11305101092BD008091BC008F5F8093BC008091DD
S1130520BC00883109F085CE1092BC0082CE1F92A7
S11305300F920FB60F9211248F938091BE008F5F9C
S11305408093BE008F910F900FBE0F901F9018954F
S11305506FEF0E9403040895CF93DF93CDB7DEB706
S11305602A970FB6F894DEBF0FBECDBFDE011196F9
S1130570E1EBF0E09AE001900D929150E1F7FE0179
S1130580E60FF11D61810E9416042A960FB6F894B5
S1130590DEBF0FBECDBFDF91CF910895823419F134
S11305A018F4813439F008958334B1F1843409F4B2
S11305B04CC00895413059F42AB381E090E002C060
S11305C0880F991F6A95E2F7822B8ABB08952AB394
S11305D081E090E002C0880F991F6A95E2F7809548
S11305E082238ABB0895413059F427B381E090E017
S11305F002C0880F991F6A95E2F7822B87BB089582
S113060027B381E090E002C0880F991F6A95E2F752
S11306108095822387BB0895413059F424B381E047
S113062090E002C0880F991F6A95E2F7822B84BB81
S1130630089524B381E090E002C0880F991F6A9561
S1130640E2F78095822384BB0895413059F421B3A5
S113065081E090E002C0880F991F6A95E2F7822B2F
S113066081BB089521B381E090E002C0880F991FF7
S11306706A95E2F78095822381BB0895823419F14B
S113068018F4813439F008958334B1F1843409F4D1
S11306904CC00895413059F42BB381E090E002C07E
S11306A0880F991F6A95E2F7822B8BBB08952BB3B1
S11306B081E090E002C0880F991F6A95E2F7809567
S11306C082238BBB0895413059F428B381E090E034
S11306D002C0880F991F6A95E2F7822B88BB0895A0
S11306E028B381E090E002C0880F991F6A95E2F771
S11306F08095822388BB0895413059F425B381E065
S113070090E002C0880F991F6A95E2F7822B85BB9F
S1130710089525B381E090E002C0880F991F6A957F
S1130720E2F78095822385BB0895413059F422B3C2
S113073081E090E002C0880F991F6A95E2F7822B4E
S113074082BB089522B381E090E002C0880F991F14
S11307506A95E2F78095822382BB08958234D9F0AA
S113076018F4813431F04DC0833439F18434B9F153
S113077048C029B381E090E0062E02C0880F991F7B
S11307800A94E2F730E08223932302C0959587957B
S11307906A95E2F7089526B381E090E0062E02C040
S11307A0880F991F0A94E2F730E08223932302C052
S11307B0959587956A95E2F7089523B381E090E0D3
S11307C0062E02C0880F991F0A94E2F730E08223B4
S11307D0932302C0959587956A95E2F7089520B30F
S11307E081E090E0062E02C0880F991F0A94E2F778
S11307F030E08223932302C0959587956A95E2F7AA
S1130800089580E00895823459F018F4813431F069
S11308100895833439F0843439F008956ABB089517
S113082067BB089564BB089561BB0895823459F091
S113083018F4813431F00895833439F0843439F074
S113084008956BBB089568BB089565BB089562BBAA
S11308500895823419F118F4813439F008958334F9
S1130860B1F1843409F44CC00895413059F42BB3E8
S113087081E090E002C0880F991F6A95E2F7822B0D
S11308808BBB08952BB381E090E002C0880F991FC1
S11308906A95E2F7809582238BBB0895413059F421
S11308A028B381E090E002C0880F991F6A95E2F7AF
S11308B0822B88BB089528B381E090E002C0880FA2
S11308C0991F6A95E2F78095822388BB0895413089
S11308D059F425B381E090E002C0880F991F6A950E
S11308E0E2F7822B85BB089525B381E090E002C036
S11308F0880F991F6A95E2F78095822385BB089536
S1130900413059F422B381E090E002C0880F991F6E
S11309106A95E2F7822B82BB089522B381E090E0CE
S113092002C0880F991F6A95E2F78095822382BBE3
S113093008956295607F823479F018F4813431F03F
S11309400895833479F0843499F008958BB38F70CB
S11309508BBB8BB3862B8BBB88B38F7088BB88B360
S1130960862B88BB85B38F7085BB85B3862B85BBEF
S113097082B38F7082BB82B3682B62BB089541E05F
S113098060E081E40E943E038FE99FE00197F1F764
S113099000C0000040E060E081E40E943E038FE973
S11309A09FE00197F1F700C000000895CF93C82F8E
S11309B0682F62956F7081E40E94990440E062E0C0
S11309C081E40E943E030E94BF046C2F81E40E94D4
S11309D0990440E062E081E40E943E030E94BF0467
S11309E08FEC97E00197F1F700C00000CF910895D4
S11309F02FEF81EE94E0215080409040E1F700C059
S1130A00000041E064E081E40E94CE0241E065E040
S1130A1081E40E94CE0241E066E081E40E94CE02BD
S1130A2041E067E081E40E94CE0241E060E081E4BD
S1130A300E94CE0241E061E081E40E94CE0241E0E6
S1130A4062E081E40E94CE0240E061E081E40E9421
S1130A503E0382E00E94D6048FE19EE40197F1F701
S1130A6000C0000088E20E94D6048FEC97E0019752
S1130A70F1F700C000008EE00E94D6048FEC97E0EE
S1130A800197F1F700C0000081E00E94D6048FE1D5
S1130A909EE40197F1F700C0000086E00E94D604AE
S1130AA08FEC97E00197F1F700C000000895CF9311
S1130AB0C82F682F62956F7081E40E94990441E009
S1130AC062E081E40E943E030E94BF046C2F81E433
S1130AD00E94990441E062E081E40E943E030E9486
S1130AE0BF048FEC97E00197F1F700C00000CF91AD
S1130AF00895CF93DF93EC018881882331F0219608
S1130B000E94570589918111FBCFDF91CF91089500
S1130B1081E00E94D6048FE19EE40197F1F700C0C2
S1130B20000008959FEF980F923070F49FEF960F96
S1130B30903160F4813019F42FE7260F08C0823019
S1130B4031F42FEB260F03C020E801C020E8822FE8
S1130B500E94D6048FEC97E00197F1F700C00000E3
S1130B60089582B5886082BD85B5816085BD85B5EF
S1130B70846085BD789489B7806489BF0895991B82
S1130B8079E004C0991F961708F0961B881F7A9580
S10D0B90C9F780950895F894FFCF8B
S1130B9A3738392F3435362A3132332D41303D2B0B
S1130BAA7072657373203120746F007365742063E7
S1130BBA6C6F636B00686F7572733D2D2D006D69E0
S1130BCA6E757465733D2D2D007365636F6E647362
S1130BDA3D2D2D0077726F6E672063686F696365B8
S10F0BEA003F065B4F666D7D477F6F0087
S9030000FC
